{"abi":[{"type":"constructor","inputs":[{"name":"_initialPrice","type":"int256","internalType":"int256"}],"stateMutability":"nonpayable"},{"type":"function","name":"decimals","inputs":[],"outputs":[{"name":"","type":"uint8","internalType":"uint8"}],"stateMutability":"pure"},{"type":"function","name":"description","inputs":[],"outputs":[{"name":"","type":"string","internalType":"string"}],"stateMutability":"pure"},{"type":"function","name":"getRoundData","inputs":[{"name":"","type":"uint80","internalType":"uint80"}],"outputs":[{"name":"roundId","type":"uint80","internalType":"uint80"},{"name":"answer","type":"int256","internalType":"int256"},{"name":"","type":"uint256","internalType":"uint256"},{"name":"updatedAt","type":"uint256","internalType":"uint256"},{"name":"answeredInRound","type":"uint80","internalType":"uint80"}],"stateMutability":"view"},{"type":"function","name":"latestRoundData","inputs":[],"outputs":[{"name":"","type":"uint80","internalType":"uint80"},{"name":"answer","type":"int256","internalType":"int256"},{"name":"","type":"uint256","internalType":"uint256"},{"name":"updatedAt","type":"uint256","internalType":"uint256"},{"name":"","type":"uint80","internalType":"uint80"}],"stateMutability":"view"},{"type":"function","name":"setPrice","inputs":[{"name":"newPrice","type":"int256","internalType":"int256"}],"outputs":[],"stateMutability":"nonpayable"},{"type":"function","name":"version","inputs":[],"outputs":[{"name":"","type":"uint256","internalType":"uint256"}],"stateMutability":"pure"}],"bytecode":{"object":"0x608060405234801561001057600080fd5b506040516105233803806105238339818101604052810190610032919061007a565b80600081905550506100a7565b600080fd5b6000819050919050565b61005781610044565b811461006257600080fd5b50565b6000815190506100748161004e565b92915050565b6000602082840312156100905761008f61003f565b5b600061009e84828501610065565b91505092915050565b61046d806100b66000396000f3fe608060405234801561001057600080fd5b50600436106100625760003560e01c8063313ce5671461006757806354fd4d50146100855780637284e416146100a35780639a6fc8f5146100c1578063f7a30806146100f5578063feaf968c14610111575b600080fd5b61006f610133565b60405161007c91906101ee565b60405180910390f35b61008d61013c565b60405161009a9190610222565b60405180910390f35b6100ab610145565b6040516100b891906102cd565b60405180910390f35b6100db60048036038101906100d69190610336565b610182565b6040516100ec95949392919061038b565b60405180910390f35b61010f600480360381019061010a919061040a565b6101a6565b005b6101196101b0565b60405161012a95949392919061038b565b60405180910390f35b60006008905090565b60006001905090565b60606040518060400160405280600f81526020017f4d6f636b20507269636520466565640000000000000000000000000000000000815250905090565b60008060008060008060005460004260009450945094509450945091939590929450565b8060008190555050565b6000806000806000806000546000426000945094509450945094509091929394565b600060ff82169050919050565b6101e8816101d2565b82525050565b600060208201905061020360008301846101df565b92915050565b6000819050919050565b61021c81610209565b82525050565b60006020820190506102376000830184610213565b92915050565b600081519050919050565b600082825260208201905092915050565b60005b8381101561027757808201518184015260208101905061025c565b60008484015250505050565b6000601f19601f8301169050919050565b600061029f8261023d565b6102a98185610248565b93506102b9818560208601610259565b6102c281610283565b840191505092915050565b600060208201905081810360008301526102e78184610294565b905092915050565b600080fd5b600069ffffffffffffffffffff82169050919050565b610313816102f4565b811461031e57600080fd5b50565b6000813590506103308161030a565b92915050565b60006020828403121561034c5761034b6102ef565b5b600061035a84828501610321565b91505092915050565b61036c816102f4565b82525050565b6000819050919050565b61038581610372565b82525050565b600060a0820190506103a06000830188610363565b6103ad602083018761037c565b6103ba6040830186610213565b6103c76060830185610213565b6103d46080830184610363565b9695505050505050565b6103e781610372565b81146103f257600080fd5b50565b600081359050610404816103de565b92915050565b6000602082840312156104205761041f6102ef565b5b600061042e848285016103f5565b9150509291505056fea2646970667358221220f0d52dec9df3446b414d8d1da3d6ded78f17f6d3f85c53260c23c3943db8c34b64736f6c63430008120033","linkReferences":{}},"methodIdentifiers":{"decimals()":"313ce567","description()":"7284e416","getRoundData(uint80)":"9a6fc8f5","latestRoundData()":"feaf968c","setPrice(int256)":"f7a30806","version()":"54fd4d50"},"id":25}