{"abi":[{"type":"constructor","inputs":[{"name":"priceFeed","type":"address","internalType":"address"}],"stateMutability":"nonpayable"},{"type":"fallback","stateMutability":"payable"},{"type":"receive","stateMutability":"payable"},{"type":"function","name":"MINIMUM_USD","inputs":[],"outputs":[{"name":"","type":"uint256","internalType":"uint256"}],"stateMutability":"view"},{"type":"function","name":"claimRewards","inputs":[],"outputs":[],"stateMutability":"nonpayable"},{"type":"function","name":"fundRewards","inputs":[],"outputs":[],"stateMutability":"payable"},{"type":"function","name":"getContractStats","inputs":[],"outputs":[{"name":"_totalStaked","type":"uint256","internalType":"uint256"},{"name":"_totalUsers","type":"uint256","internalType":"uint256"},{"name":"_rewardRate","type":"uint256","internalType":"uint256"},{"name":"_contractBalance","type":"uint256","internalType":"uint256"}],"stateMutability":"view"},{"type":"function","name":"getPriceFeed","inputs":[],"outputs":[{"name":"","type":"address","internalType":"address"}],"stateMutability":"view"},{"type":"function","name":"getStakedAt","inputs":[{"name":"user","type":"address","internalType":"address"}],"outputs":[{"name":"","type":"uint256","internalType":"uint256"}],"stateMutability":"view"},{"type":"function","name":"getUserBalance","inputs":[{"name":"user","type":"address","internalType":"address"}],"outputs":[{"name":"","type":"uint256","internalType":"uint256"}],"stateMutability":"view"},{"type":"function","name":"getUserInfo","inputs":[{"name":"user","type":"address","internalType":"address"}],"outputs":[{"name":"balance","type":"uint256","internalType":"uint256"},{"name":"rewards","type":"uint256","internalType":"uint256"},{"name":"lastStakedAt","type":"uint256","internalType":"uint256"}],"stateMutability":"view"},{"type":"function","name":"getUserRewards","inputs":[{"name":"user","type":"address","internalType":"address"}],"outputs":[{"name":"","type":"uint256","internalType":"uint256"}],"stateMutability":"view"},{"type":"function","name":"hasStakedBefore","inputs":[{"name":"","type":"address","internalType":"address"}],"outputs":[{"name":"","type":"bool","internalType":"bool"}],"stateMutability":"view"},{"type":"function","name":"i_owner","inputs":[],"outputs":[{"name":"","type":"address","internalType":"address"}],"stateMutability":"view"},{"type":"function","name":"rewardRatePerSecond","inputs":[],"outputs":[{"name":"","type":"uint256","internalType":"uint256"}],"stateMutability":"view"},{"type":"function","name":"s_balances","inputs":[{"name":"","type":"address","internalType":"address"}],"outputs":[{"name":"","type":"uint256","internalType":"uint256"}],"stateMutability":"view"},{"type":"function","name":"s_rewards","inputs":[{"name":"","type":"address","internalType":"address"}],"outputs":[{"name":"","type":"uint256","internalType":"uint256"}],"stateMutability":"view"},{"type":"function","name":"s_stakedAt","inputs":[{"name":"","type":"address","internalType":"address"}],"outputs":[{"name":"","type":"uint256","internalType":"uint256"}],"stateMutability":"view"},{"type":"function","name":"setRewardRate","inputs":[{"name":"newRate","type":"uint256","internalType":"uint256"}],"outputs":[],"stateMutability":"nonpayable"},{"type":"function","name":"stake","inputs":[],"outputs":[],"stateMutability":"payable"},{"type":"function","name":"totalStaked","inputs":[],"outputs":[{"name":"","type":"uint256","internalType":"uint256"}],"stateMutability":"view"},{"type":"function","name":"totalUsers","inputs":[],"outputs":[{"name":"","type":"uint256","internalType":"uint256"}],"stateMutability":"view"},{"type":"function","name":"withdrawStake","inputs":[],"outputs":[],"stateMutability":"nonpayable"},{"type":"event","name":"OwnershipTransferred","inputs":[{"name":"previousOwner","type":"address","indexed":true,"internalType":"address"},{"name":"newOwner","type":"address","indexed":true,"internalType":"address"}],"anonymous":false},{"type":"event","name":"RewardsClaimed","inputs":[{"name":"user","type":"address","indexed":true,"internalType":"address"},{"name":"reward","type":"uint256","indexed":false,"internalType":"uint256"}],"anonymous":false},{"type":"event","name":"Staked","inputs":[{"name":"user","type":"address","indexed":true,"internalType":"address"},{"name":"amount","type":"uint256","indexed":false,"internalType":"uint256"}],"anonymous":false},{"type":"event","name":"Withdrawn","inputs":[{"name":"user","type":"address","indexed":true,"internalType":"address"},{"name":"amount","type":"uint256","indexed":false,"internalType":"uint256"}],"anonymous":false}],"bytecode":{"object":"0x60c060405266038d7ea4c680006000553480156200001c57600080fd5b5060405162001a3a38038062001a3a83398181016040528101906200004291906200011b565b8073ffffffffffffffffffffffffffffffffffffffff1660808173ffffffffffffffffffffffffffffffffffffffff16815250503373ffffffffffffffffffffffffffffffffffffffff1660a08173ffffffffffffffffffffffffffffffffffffffff1681525050506200014d565b600080fd5b600073ffffffffffffffffffffffffffffffffffffffff82169050919050565b6000620000e382620000b6565b9050919050565b620000f581620000d6565b81146200010157600080fd5b50565b6000815190506200011581620000ea565b92915050565b600060208284031215620001345762000133620000b1565b5b6000620001448482850162000104565b91505092915050565b60805160a0516118b26200018860003960008181610ace01528181610e250152610e670152600081816107130152610b6801526118b26000f3fe6080604052600436106101235760003560e01c80639e447fc6116100a0578063bff1f9e111610064578063bff1f9e1146103e6578063c5691cbd14610411578063dba6335f1461044e578063dfe6b5d614610479578063ff18bf0b146104a75761012a565b80639e447fc6146103015780639e87a5cd1461032a578063ab32eb6914610355578063bea0815114610392578063bed9d861146103cf5761012a565b806347734892116100e757806347734892146102045780635d773b2c146102415780636386c1c71461026c5780636b69a592146102ab578063817b1cd2146102d65761012a565b8063078b0fb71461012c5780630f991c5114610169578063103001b1146101a6578063372500ab146101e35780633a4b66f1146101fa5761012a565b3661012a57005b005b34801561013857600080fd5b50610153600480360381019061014e919061117e565b6104b1565b60405161016091906111c4565b60405180910390f35b34801561017557600080fd5b50610190600480360381019061018b919061117e565b6104fa565b60405161019d91906111c4565b60405180910390f35b3480156101b257600080fd5b506101cd60048036038101906101c8919061117e565b610512565b6040516101da91906111fa565b60405180910390f35b3480156101ef57600080fd5b506101f8610532565b005b610202610705565b005b34801561021057600080fd5b5061022b6004803603810190610226919061117e565b610999565b60405161023891906111c4565b60405180910390f35b34801561024d57600080fd5b506102566109e2565b60405161026391906111c4565b60405180910390f35b34801561027857600080fd5b50610293600480360381019061028e919061117e565b6109e8565b6040516102a293929190611215565b60405180910390f35b3480156102b757600080fd5b506102c0610aba565b6040516102cd91906111c4565b60405180910390f35b3480156102e257600080fd5b506102eb610ac6565b6040516102f891906111c4565b60405180910390f35b34801561030d57600080fd5b5061032860048036038101906103239190611278565b610acc565b005b34801561033657600080fd5b5061033f610b64565b60405161034c91906112b4565b60405180910390f35b34801561036157600080fd5b5061037c6004803603810190610377919061117e565b610b8c565b60405161038991906111c4565b60405180910390f35b34801561039e57600080fd5b506103b960048036038101906103b4919061117e565b610ba4565b6040516103c691906111c4565b60405180910390f35b3480156103db57600080fd5b506103e4610bbc565b005b3480156103f257600080fd5b506103fb610dd4565b60405161040891906111c4565b60405180910390f35b34801561041d57600080fd5b506104386004803603810190610433919061117e565b610dda565b60405161044591906111c4565b60405180910390f35b34801561045a57600080fd5b50610463610e23565b60405161047091906112b4565b60405180910390f35b34801561048557600080fd5b5061048e610e47565b60405161049e94939291906112cf565b60405180910390f35b6104af610e65565b005b6000600360008373ffffffffffffffffffffffffffffffffffffffff1673ffffffffffffffffffffffffffffffffffffffff168152602001908152602001600020549050919050565b60026020528060005260406000206000915090505481565b60046020528060005260406000206000915054906101000a900460ff1681565b61053b33610ef5565b6000600360003373ffffffffffffffffffffffffffffffffffffffff1673ffffffffffffffffffffffffffffffffffffffff168152602001908152602001600020549050600081116105c2576040517f08c379a00000000000000000000000000000000000000000000000000000000081526004016105b990611371565b60405180910390fd5b6000600360003373ffffffffffffffffffffffffffffffffffffffff1673ffffffffffffffffffffffffffffffffffffffff1681526020019081526020016000208190555060003373ffffffffffffffffffffffffffffffffffffffff168260405161062d906113c2565b60006040518083038185875af1925050503d806000811461066a576040519150601f19603f3d011682016040523d82523d6000602084013e61066f565b606091505b50509050806106b3576040517f08c379a00000000000000000000000000000000000000000000000000000000081526004016106aa90611423565b60405180910390fd5b3373ffffffffffffffffffffffffffffffffffffffff167ffc30cddea38e2bf4d6ea7d3f9ed3b6ad7f176419f4963bd81318067a4aee73fe836040516106f991906111c4565b60405180910390a25050565b674563918244f400006107417f00000000000000000000000000000000000000000000000000000000000000003461105490919063ffffffff16565b1015610782576040517f08c379a00000000000000000000000000000000000000000000000000000000081526004016107799061148f565b60405180910390fd5b6000600160003373ffffffffffffffffffffffffffffffffffffffff1673ffffffffffffffffffffffffffffffffffffffff1681526020019081526020016000205411156107d4576107d333610ef5565b5b600460003373ffffffffffffffffffffffffffffffffffffffff1673ffffffffffffffffffffffffffffffffffffffff16815260200190815260200160002060009054906101000a900460ff16610896576001600460003373ffffffffffffffffffffffffffffffffffffffff1673ffffffffffffffffffffffffffffffffffffffff16815260200190815260200160002060006101000a81548160ff02191690831515021790555060056000815480929190610890906114de565b91905055505b34600160003373ffffffffffffffffffffffffffffffffffffffff1673ffffffffffffffffffffffffffffffffffffffff16815260200190815260200160002060008282546108e59190611526565b9250508190555034600660008282546108fe9190611526565b9250508190555042600260003373ffffffffffffffffffffffffffffffffffffffff1673ffffffffffffffffffffffffffffffffffffffff168152602001908152602001600020819055503373ffffffffffffffffffffffffffffffffffffffff167f9e71bc8eea02a63969f509818f2dafb9254532904319f9dbda79b67bd34a5f3d3460405161098f91906111c4565b60405180910390a2565b6000600160008373ffffffffffffffffffffffffffffffffffffffff1673ffffffffffffffffffffffffffffffffffffffff168152602001908152602001600020549050919050565b60005481565b6000806000600160008573ffffffffffffffffffffffffffffffffffffffff1673ffffffffffffffffffffffffffffffffffffffff16815260200190815260200160002054600360008673ffffffffffffffffffffffffffffffffffffffff1673ffffffffffffffffffffffffffffffffffffffff16815260200190815260200160002054600260008773ffffffffffffffffffffffffffffffffffffffff1673ffffffffffffffffffffffffffffffffffffffff168152602001908152602001600020549250925092509193909250565b674563918244f4000081565b60065481565b7f000000000000000000000000000000000000000000000000000000000000000073ffffffffffffffffffffffffffffffffffffffff163373ffffffffffffffffffffffffffffffffffffffff1614610b5a576040517f08c379a0000000000000000000000000000000000000000000000000000000008152600401610b51906115a6565b60405180910390fd5b8060008190555050565b60007f0000000000000000000000000000000000000000000000000000000000000000905090565b60016020528060005260406000206000915090505481565b60036020528060005260406000206000915090505481565b610bc533610ef5565b6000600160003373ffffffffffffffffffffffffffffffffffffffff1673ffffffffffffffffffffffffffffffffffffffff16815260200190815260200160002054905060008111610c4c576040517f08c379a0000000000000000000000000000000000000000000000000000000008152600401610c4390611612565b60405180910390fd5b6000600160003373ffffffffffffffffffffffffffffffffffffffff1673ffffffffffffffffffffffffffffffffffffffff168152602001908152602001600020819055506000600260003373ffffffffffffffffffffffffffffffffffffffff1673ffffffffffffffffffffffffffffffffffffffff1681526020019081526020016000208190555060003373ffffffffffffffffffffffffffffffffffffffff1682604051610cfc906113c2565b60006040518083038185875af1925050503d8060008114610d39576040519150601f19603f3d011682016040523d82523d6000602084013e610d3e565b606091505b5050905080610d82576040517f08c379a0000000000000000000000000000000000000000000000000000000008152600401610d799061167e565b60405180910390fd5b3373ffffffffffffffffffffffffffffffffffffffff167f7084f5476618d8e60b11ef0d7d3f06914655adb8793e28ff7f018d4c76d505d583604051610dc891906111c4565b60405180910390a25050565b60055481565b6000600260008373ffffffffffffffffffffffffffffffffffffffff1673ffffffffffffffffffffffffffffffffffffffff168152602001908152602001600020549050919050565b7f000000000000000000000000000000000000000000000000000000000000000081565b60008060008060065460055460005447935093509350935090919293565b7f000000000000000000000000000000000000000000000000000000000000000073ffffffffffffffffffffffffffffffffffffffff163373ffffffffffffffffffffffffffffffffffffffff1614610ef3576040517f08c379a0000000000000000000000000000000000000000000000000000000008152600401610eea906115a6565b60405180910390fd5b565b6000600260008373ffffffffffffffffffffffffffffffffffffffff1673ffffffffffffffffffffffffffffffffffffffff1681526020019081526020016000205490506000811480610f8757506000600160008473ffffffffffffffffffffffffffffffffffffffff1673ffffffffffffffffffffffffffffffffffffffff16815260200190815260200160002054145b15610f925750611051565b60008142610fa0919061169e565b90506000805482610fb191906116d2565b905080600360008673ffffffffffffffffffffffffffffffffffffffff1673ffffffffffffffffffffffffffffffffffffffff16815260200190815260200160002060008282546110029190611526565b9250508190555042600260008673ffffffffffffffffffffffffffffffffffffffff1673ffffffffffffffffffffffffffffffffffffffff168152602001908152602001600020819055505050505b50565b6000806110608361108a565b9050670de0b6b3a7640000848261107791906116d2565b6110819190611743565b91505092915050565b6000808273ffffffffffffffffffffffffffffffffffffffff1663feaf968c6040518163ffffffff1660e01b815260040160a060405180830381865afa1580156110d8573d6000803e3d6000fd5b505050506040513d601f19601f820116820180604052508101906110fc9190611801565b5050509150506402540be4008161111391906116d2565b915050919050565b600080fd5b600073ffffffffffffffffffffffffffffffffffffffff82169050919050565b600061114b82611120565b9050919050565b61115b81611140565b811461116657600080fd5b50565b60008135905061117881611152565b92915050565b6000602082840312156111945761119361111b565b5b60006111a284828501611169565b91505092915050565b6000819050919050565b6111be816111ab565b82525050565b60006020820190506111d960008301846111b5565b92915050565b60008115159050919050565b6111f4816111df565b82525050565b600060208201905061120f60008301846111eb565b92915050565b600060608201905061122a60008301866111b5565b61123760208301856111b5565b61124460408301846111b5565b949350505050565b611255816111ab565b811461126057600080fd5b50565b6000813590506112728161124c565b92915050565b60006020828403121561128e5761128d61111b565b5b600061129c84828501611263565b91505092915050565b6112ae81611140565b82525050565b60006020820190506112c960008301846112a5565b92915050565b60006080820190506112e460008301876111b5565b6112f160208301866111b5565b6112fe60408301856111b5565b61130b60608301846111b5565b95945050505050565b600082825260208201905092915050565b7f4e6f207265776172647320796574000000000000000000000000000000000000600082015250565b600061135b600e83611314565b915061136682611325565b602082019050919050565b6000602082019050818103600083015261138a8161134e565b9050919050565b600081905092915050565b50565b60006113ac600083611391565b91506113b78261139c565b600082019050919050565b60006113cd8261139f565b9150819050919050565b7f526577617264207472616e73666572206661696c656400000000000000000000600082015250565b600061140d601683611314565b9150611418826113d7565b602082019050919050565b6000602082019050818103600083015261143c81611400565b9050919050565b7f5374616b65203e3d20243520696e204554480000000000000000000000000000600082015250565b6000611479601283611314565b915061148482611443565b602082019050919050565b600060208201905081810360008301526114a88161146c565b9050919050565b7f4e487b7100000000000000000000000000000000000000000000000000000000600052601160045260246000fd5b60006114e9826111ab565b91507fffffffffffffffffffffffffffffffffffffffffffffffffffffffffffffffff820361151b5761151a6114af565b5b600182019050919050565b6000611531826111ab565b915061153c836111ab565b9250828201905080821115611554576115536114af565b5b92915050565b7f4e6f74206f776e65720000000000000000000000000000000000000000000000600082015250565b6000611590600983611314565b915061159b8261155a565b602082019050919050565b600060208201905081810360008301526115bf81611583565b9050919050565b7f4e6f207374616b65000000000000000000000000000000000000000000000000600082015250565b60006115fc600883611314565b9150611607826115c6565b602082019050919050565b6000602082019050818103600083015261162b816115ef565b9050919050565b7f5769746864726177206661696c65640000000000000000000000000000000000600082015250565b6000611668600f83611314565b915061167382611632565b602082019050919050565b600060208201905081810360008301526116978161165b565b9050919050565b60006116a9826111ab565b91506116b4836111ab565b92508282039050818111156116cc576116cb6114af565b5b92915050565b60006116dd826111ab565b91506116e8836111ab565b92508282026116f6816111ab565b9150828204841483151761170d5761170c6114af565b5b5092915050565b7f4e487b7100000000000000000000000000000000000000000000000000000000600052601260045260246000fd5b600061174e826111ab565b9150611759836111ab565b92508261176957611768611714565b5b828204905092915050565b600069ffffffffffffffffffff82169050919050565b61179381611774565b811461179e57600080fd5b50565b6000815190506117b08161178a565b92915050565b6000819050919050565b6117c9816117b6565b81146117d457600080fd5b50565b6000815190506117e6816117c0565b92915050565b6000815190506117fb8161124c565b92915050565b600080600080600060a0868803121561181d5761181c61111b565b5b600061182b888289016117a1565b955050602061183c888289016117d7565b945050604061184d888289016117ec565b935050606061185e888289016117ec565b925050608061186f888289016117a1565b915050929550929590935056fea26469706673582212209e12423c18b0d8aef475c1f125aae040dabfb22e9ae66a62c6d431b1a17f439f64736f6c63430008120033","linkReferences":{}},"methodIdentifiers":{"MINIMUM_USD()":"6b69a592","claimRewards()":"372500ab","fundRewards()":"ff18bf0b","getContractStats()":"dfe6b5d6","getPriceFeed()":"9e87a5cd","getStakedAt(address)":"c5691cbd","getUserBalance(address)":"47734892","getUserInfo(address)":"6386c1c7","getUserRewards(address)":"078b0fb7","hasStakedBefore(address)":"103001b1","i_owner()":"dba6335f","rewardRatePerSecond()":"5d773b2c","s_balances(address)":"ab32eb69","s_rewards(address)":"bea08151","s_stakedAt(address)":"0f991c51","setRewardRate(uint256)":"9e447fc6","stake()":"3a4b66f1","totalStaked()":"817b1cd2","totalUsers()":"bff1f9e1","withdrawStake()":"bed9d861"},"id":23}